{
  "contractName": "CMCOracle",
  "abi": [
    {
      "constant": true,
      "inputs": [],
      "name": "btcMarketCap",
      "outputs": [
        {
          "name": "",
          "type": "uint256"
        }
      ],
      "payable": false,
      "stateMutability": "view",
      "type": "function"
    },
    {
      "constant": true,
      "inputs": [],
      "name": "owner",
      "outputs": [
        {
          "name": "",
          "type": "address"
        }
      ],
      "payable": false,
      "stateMutability": "view",
      "type": "function"
    },
    {
      "inputs": [],
      "payable": false,
      "stateMutability": "nonpayable",
      "type": "constructor"
    },
    {
      "anonymous": false,
      "inputs": [
        {
          "indexed": false,
          "name": "from",
          "type": "address"
        }
      ],
      "name": "CallbackGetBTCCap",
      "type": "event"
    },
    {
      "constant": false,
      "inputs": [],
      "name": "updateBTCCap",
      "outputs": [],
      "payable": false,
      "stateMutability": "nonpayable",
      "type": "function"
    },
    {
      "constant": false,
      "inputs": [
        {
          "name": "cap",
          "type": "uint256"
        }
      ],
      "name": "setBTCCap",
      "outputs": [],
      "payable": false,
      "stateMutability": "nonpayable",
      "type": "function"
    },
    {
      "constant": true,
      "inputs": [],
      "name": "getBTCCap",
      "outputs": [
        {
          "name": "",
          "type": "uint256"
        }
      ],
      "payable": false,
      "stateMutability": "view",
      "type": "function"
    }
  ],
  "bytecode": "0x608060405234801561001057600080fd5b50336000806101000a81548173ffffffffffffffffffffffffffffffffffffffff021916908373ffffffffffffffffffffffffffffffffffffffff16021790555061028e806100606000396000f30060806040526004361061006d576000357c0100000000000000000000000000000000000000000000000000000000900463ffffffff1680631701af271461007257806321e79a6914610089578063257db2d7146100b45780638da5cb5b146100df578063f1ffa5bf14610136575b600080fd5b34801561007e57600080fd5b50610087610163565b005b34801561009557600080fd5b5061009e6101c8565b6040518082815260200191505060405180910390f35b3480156100c057600080fd5b506100c96101d2565b6040518082815260200191505060405180910390f35b3480156100eb57600080fd5b506100f46101d8565b604051808273ffffffffffffffffffffffffffffffffffffffff1673ffffffffffffffffffffffffffffffffffffffff16815260200191505060405180910390f35b34801561014257600080fd5b50610161600480360381019080803590602001909291905050506101fd565b005b7fbab576340702de78ceeffdb8f4b1ced9d5acd1a3b241ed8c51656fa6ae8b96b233604051808273ffffffffffffffffffffffffffffffffffffffff1673ffffffffffffffffffffffffffffffffffffffff16815260200191505060405180910390a1565b6000600154905090565b60015481565b6000809054906101000a900473ffffffffffffffffffffffffffffffffffffffff1681565b6000809054906101000a900473ffffffffffffffffffffffffffffffffffffffff1673ffffffffffffffffffffffffffffffffffffffff163373ffffffffffffffffffffffffffffffffffffffff1614151561025857600080fd5b80600181905550505600a165627a7a72305820a7a0b2375a65819098ddd3912641d96d7211b5907b3758e514ce71f7f58b224f0029",
  "source": "pragma solidity ^0.4.17;\n\ncontract CMCOracle {\n    // コントラクトの所有者\n    address public owner;\n\n    // BTCの時価総額、初期値は0\n    uint public btcMarketCap;\n\n    // コールバック関数\n    event CallbackGetBTCCap(address from);\n\n    function CMCOracle() public {\n        owner = msg.sender;\n    }\n\n    function updateBTCCap() public {\n        // Oracleに情報の更新を依頼\n        CallbackGetBTCCap(msg.sender);\n    }\n\n    function setBTCCap(uint cap) public {\n        // メッセージ送信者がownerなのか確認。\n        require(msg.sender == owner);\n        // 時価総額を更新\n        btcMarketCap = cap;\n    }\n\n    function getBTCCap() constant public returns (uint) {\n        return btcMarketCap;\n    }\n}",
  "sourcePath": "/Users/nagataryou/queue/LT/blockchain/contracts/CMCOracle.sol",
  "compiler": {
    "name": "solc",
    "version": "0.4.24+commit.e67f0147.Emscripten.clang"
  },
  "schemaVersion": "2.0.0",
  "updatedAt": "2018-05-30T06:58:55.140Z"
}